:100000000C942B010C945C010C945C010C945C012D
:100010000C945C010C945C010C945C010C945C01EC
:100020000C945C010C945C010C945C010C945C01DC
:100030000C945C010C945C010C945C010C945C01CC
:100040000C945C010C945C010C945C010C945C01BC
:100050000C945C010C945C010C945C010C94EA031C
:100060000C945C010C94B4030C948A030C945C0112
:100070000C945C010C945C010C945C010C945C018C
:100080000C945C010C945C010C945C010C945C017C
:100090000C945C010C945C010C945C010C945C016C
:1000A0000C945C010C945C010C945C010C945C015C
:1000B0000C945C010C945C010C945C010C945C014C
:1000C0000C945C010C945C010C945C010C945C013C
:1000D0000C945C010C945C010C945C010C945C012C
:1000E0000C945C010C9436020C94D2010C94AD017A
:1000F0000C9428060C94BA010C94A1010C948A016A
:100100000C9413020C947C020C948F010C94DC016F
:100110000C9444020C94E6010C9434040C94B60143
:100120000C94E0010C94A5010C94B0010C94C00156
:100130000C94C9020C94C4010C94A9010C94D6012E
:100140000C94C8010C9422020C94CE0100002100F2
:10015000240027002A002D00300033000101000098
:10016000040107010A0100002200250028002B00DD
:100170002E003100340002010000050108010B01CE
:1001800005050505070508080808020202020A0A13
:100190000808040404040101010101010101030331
:1001A000030303030303040707070C0C0C0C0C0CDC
:1001B0000C0C0202020206060606060606060B0BD9
:1001C0000B0B0B0B0B0B010210202008081020401A
:1001D000102040800201020108040201010204080B
:1001E0001020408080402010080402018004020199
:1001F00080402010080402010804020101020408E2
:1002000010204080010204081020408000000A0BEA
:1002100002090C0D0E080703040100000000000095
:1002200000000000000000000000000000000000CE
:10023000000000000000000012111000000000008B
:1002400000000000000000000000000000000000AE
:1002500000003404280611241FBECFEFD1E2DEBF18
:10026000CDBF00E00CBF23E0A6E5B2E001C01D92C7
:10027000A830B207E1F712E0A0E0B2E0E4EDF0E16F
:1002800000E00BBF02C007900D92A635B107D9F769
:1002900011E0CAE2D1E000E006C021970109802FF9
:1002A000FE010E943106C932D10780E00807A9F794
:1002B0000E94A8040C9458080C940000382FE9E11F
:1002C000F2E08491E3EDF1E02491EDE8F1E0949126
:1002D000992309F435C0882311F181508231F8F453
:1002E000E82FF0E08827E858FE4F8F4F0C94310636
:1002F000A901AD018A01A101A5018F01B001B601DB
:10030000BA01C001C401C801CE01D2018F01D601DA
:10031000DC01E001809180008F7780938000E92FDD
:10032000F0E0EE0FFF1FEA59FE4FA591B4918FB791
:10033000F894EC91311148C020952E232C938FBF57
:100340000895809180008F7DE8CF80918000877F25
:10035000E4CF84B58F7784BDE2CF84B58F7DFBCFAA
:100360008091B0008F778093B000D9CF8091B0009A
:100370008F7DF9CF809190008F7780939000CFCFC1
:10038000809190008F7DF9CF80919000877FF5CF8D
:100390008091A0008F778093A000C1CF8091A000B2
:1003A0008F7DF9CF8091A000877FF5CF80912001CC
:1003B0008F7780932001B3CF809120018F7DF9CF7B
:1003C00080912001877FF5CF2E2BB8CFAF92BF92BF
:1003D000CF92DF92EF92FF920F931F93CF93DF9311
:1003E0006C017B018B01040F151FEB015E01AE1840
:1003F000BF08C017D10759F06991D601ED91FC9162
:100400000190F081E02DC6011995892B79F7C5017E
:10041000DF91CF911F910F91FF90EF90DF90CF90E0
:10042000BF90AF900895FC01538D448D252F30E08F
:10043000842F90E0821B930B541710F0CF960895F1
:1004400001970895FC01918D828D981761F0A28D1E
:10045000AE0FBF2FB11D5D968C91928D9F5F9F73E4
:10046000928F90E008958FEF9FEF0895FC01918D9A
:10047000828D981731F0828DE80FF11D858D90E007
:1004800008958FEF9FEF0895FC01918D228D892FA4
:1004900090E0805C9F4F821B91098F73992708958C
:1004A00081E692E00E94440221E0892B09F420E0D9
:1004B000822F0895FC01A48DA80FB92FB11DA35A56
:1004C000BF4F2C91848D90E001968F739927848F74
:1004D000A689B7892C93A089B1898C918370806497
:1004E0008C93938D848D981306C00288F389E02D38
:1004F00080818F7D80830895EF92FF920F931F93E9
:10050000CF93DF93EC0181E0888F9B8D8C8D9813C6
:100510001AC0E889F989808185FF15C09FB7F894D2
:10052000EE89FF896083E889F9898081837080641E
:1005300080839FBF81E090E0DF91CF911F910F9169
:10054000FF90EF900895F62E0B8D10E00F5F1F4F78
:100550000F731127E02E8C8D8E110CC00FB607FC87
:10056000FACFE889F989808185FFF5CFCE010E9415
:100570005A02F1CFEB8DEC0FFD2FF11DE35AFF4F27
:10058000F0829FB7F8940B8FEA89FB8980818062A3
:10059000CFCFCF93DF93EC01888D8823B9F0AA8960
:1005A000BB89E889F9898C9185FD03C0808186FD2E
:1005B0000DC00FB607FCF7CF8C9185FFF2CF80817D
:1005C00085FFEDCFCE010E945A02E9CFDF91CF9196
:1005D000089580E090E0892B29F00E94500281115B
:1005E0000E94000080E090E0892B49F080E090E0DC
:1005F000892B29F00E94000081110E94000080E0F8
:1006000090E0892B49F080E090E0892B29F00E944E
:10061000000081110E94000080E090E0892B49F0E9
:1006200080E090E0892B29F00E94000081110C9459
:10063000000008953FB7F89480915B0290915C02AE
:10064000A0915D02B0915E0226B5A89B05C02F3F28
:1006500019F00196A11DB11D3FBFBA2FA92F982FE8
:100660008827BC01CD01620F711D811D911D42E0E3
:10067000660F771F881F991F4A95D1F70895CF936A
:10068000DF93FC0101900020E9F73197AF01481B8F
:10069000590BBC0181E692E00E94E601EC0142E0C8
:1006A00050E068E172E081E692E00E94E6018C0F82
:1006B0009D1FDF91CF910895CF93DF93EC0180913F
:1006C000FE029091FF02009759F0209100033091B3
:1006D00001032C173D0720F081E0DF91CF910895B1
:1006E000BE016F5F7F4F0E945E07009789F0909375
:1006F000FF028093FE02D0930103C0930003209178
:10070000020330910303232B39F7FC011082E4CF5D
:1007100080E0E3CF1F920F920FB60F9211240BB619
:100720000F922F933F934F935F936F937F938F938A
:100730009F93AF93BF93EF93FF9381E692E00E9464
:100740005A02FF91EF91BF91AF919F918F917F914D
:100750006F915F914F913F912F910F900BBE0F9032
:100760000FBE0F901F9018951F920F920FB60F9209
:1007700011240BB60F922F938F939F93EF93FF93B8
:10078000E0917102F09172028081E0917702F09124
:10079000780282FD1DC0908180917A028F5F8F73F5
:1007A00020917B02821741F0E0917A02F0E0EF594C
:1007B000FD4F958F80937A02FF91EF919F918F91DA
:1007C0002F910F900BBE0F900FBE0F901F9018959A
:1007D0008081F2CF1F920F920FB60F9211242F93A8
:1007E0003F938F939F93AF93BF93809157029091C4
:1007F0005802A0915902B0915A023091560223E05A
:10080000230F2D3758F50196A11DB11D20935602D7
:100810008093570290935802A0935902B0935A02C2
:1008200080915B0290915C02A0915D02B0915E02AA
:100830000196A11DB11D80935B0290935C02A09371
:100840005D02B0935E02BF91AF919F918F913F91F6
:100850002F910F900FBE0F901F90189526E8230F31
:100860000296A11DB11DD2CF1092640210926302B4
:1008700088EE93E0A0E0B0E080936502909366027A
:10088000A0936702B09368028AE092E090936202BC
:100890008093610285EC90E090936E0280936D02EC
:1008A00084EC90E09093700280936F0280EC90E073
:1008B000909372028093710281EC90E090937402A5
:1008C0008093730282EC90E090937602809375029D
:1008D00086EC90E0909378028093770210927A02EF
:1008E00010927B0210927C0210927D021092FF0205
:1008F0001092FE0210920103109200031092030363
:100900001092020390E080E00E945C032091FE02BE
:100910003091FF02811113C02115310519F0C90171
:100920000E94D5061092FF021092FE02109203035D
:100930001092020310920103109200030895109286
:100940000303109202036AE172E0C9010C9451089A
:10095000CF93DF931F921F92CDB7DEB7789484B503
:10096000826084BD84B5816084BD85B5826085BDAB
:1009700085B5816085BD80916E00816080936E0039
:10098000109281008091810082608093810080912B
:1009900081008160809381008091800081608093DC
:1009A00080008091B10084608093B1008091B0009C
:1009B00081608093B000809191008260809391006B
:1009C000809191008160809391008091900081607E
:1009D000809390008091A10082608093A10080911B
:1009E000A10081608093A1008091A000816080932C
:1009F000A0008091210182608093210180912101DA
:100A00008160809321018091200181608093200189
:100A100080917A00846080937A0080917A0082606D
:100A200080937A0080917A00816080937A0080912F
:100A30007A00806880937A001092C100E091710280
:100A4000F091720282E08083E0916D02F0916E027B
:100A50001082E0916F02F09170028FEC808310920F
:100A60007902E0917502F091760286E08083E09150
:100A70007302F0917402808180618083E09173023F
:100A8000F0917402808188608083E0917302F0911C
:100A90007402808180688083E0917302F091740217
:100AA00080818F7D8083E3EDF1E02491EDE8F1E03A
:100AB0008491882399F090E0880F991FFC01E45BF2
:100AC000FE4FA591B491FC01EA59FE4F8591949196
:100AD0008FB7F894EC91E22BEC938FBF8BE192E00F
:100AE0000E943F0381E692E00E9444021816190614
:100AF0000CF05CC081E692E00E94220200915F024D
:100B0000109160020F5F1F4F1093600200935F020D
:100B100089831A82E0900203F09003032FEFE21A18
:100B2000F20AC7010E945C03882399F02091FE021B
:100B30003091FF028091020390910303BE016F5F29
:100B40007F4F820F931F0E945108F0920303E0929F
:100B500002030C30110531F640910203509103035A
:100B60006091FE027091FF0281E692E00E94E60130
:100B70008091020390910303892B91F063E372E06B
:100B80008091FE029091FF020E944808892B41F457
:100B900080E492E00E943F0381E00E945E01A2CFC8
:100BA00080E00E945E018AE492E09ACF1092600297
:100BB00010925F0290E080E00E945C032091FE02B0
:100BC0003091FF0281113AC02115310519F0C90198
:100BD0000E94D5061092FF021092FE0210920303AB
:100BE0001092020310920103109200030E941A0354
:100BF0004B015C0184EFC82EDD24D394E12CF12C51
:100C00000E941A03681979098A099B09683E734092
:100C100081059105A8F381E0C81AD108E108F1081F
:100C200028EE820E23E0921EA11CB11CC114D10437
:100C3000E104F10429F70E94E90254CF1092030362
:100C4000109202036AE172E0C9010E945108CECFFE
:100C50008091FE029091FF02009711F00C94D5064E
:100C60000895EE0FFF1F881F8BBF0790F691E02DB0
:100C700019940F931F93CF93DF938230910510F453
:100C800082E090E0E0910603F091070330E020E07D
:100C9000B0E0A0E0309799F42115310509F44AC07D
:100CA000281B390B24303105D8F58A819B816115C9
:100CB000710589F1FB0193838283FE0111C040819C
:100CC00051810281138148175907E0F048175907ED
:100CD00099F4109761F012960C93129713961C9347
:100CE0003296CF01DF91CF911F910F91089500931C
:100CF000060310930703F4CF2115310551F0421775
:100D0000530738F0A901DB019A01BD01DF01F801A9
:100D1000C1CFEF01F9CF9093070380930603CDCFA6
:100D2000FE01E20FF31F8193919322503109398321
:100D30002883D7CF2091040330910503232B41F45E
:100D400020910202309103023093050320930403A3
:100D500020910002309101022115310541F42DB797
:100D60003EB74091040250910502241B350BE091DF
:100D70000403F0910503E217F307A0F42E1B3F0BC9
:100D80002817390778F0AC014E5F5F4F24173507FD
:100D900048F04E0F5F1F5093050340930403819367
:100DA00091939FCFF0E0E0E09CCFCF93DF9300974B
:100DB000E9F0FC01329713821282A0910603B091F0
:100DC0000703ED0130E020E01097A1F4208131818C
:100DD000820F931F209104033091050328173907D0
:100DE00009F061C0F0930503E0930403DF91CF9114
:100DF0000895EA01CE17DF07E8F54A815B819E017D
:100E000041155105B1F7E901FB83EA8349915991F5
:100E1000C40FD51FEC17FD0761F480819181029604
:100E2000840F951FE90199838883828193819B8335
:100E30008A83F0E0E0E012968D919C9113970097E1
:100E4000B9F52D913C911197CD010296820F931F18
:100E500020910403309105032817390739F630979C
:100E600051F51092070310920603B0930503A09367
:100E70000403BCCFD383C28340815181840F951F6B
:100E8000C817D90761F44E5F5F4F88819981480F79
:100E9000591F518340838A819B81938382832115CB
:100EA000310509F0B0CFF0930703E09306039ECF1E
:100EB000FD01DC01C0CF13821282D7CF4F925F9227
:100EC0006F927F928F929F92AF92BF92CF92DF925A
:100ED000EF92FF920F931F93CF93DF938C010097B4
:100EE00099F4CB01DF91CF911F910F91FF90EF907B
:100EF000DF90CF90BF90AF909F908F907F906F903A
:100F00005F904F900C943906FC01E60FF71F9C018F
:100F100022503109E217F30708F4AEC0D901CD9190
:100F2000DC911197C617D70720F1C530D10578F0AD
:100F3000CE0104978617970750F0C61BD70B229750
:100F4000C193D1936D937C93CF010E94D506C801C4
:100F5000DF91CF911F910F91FF90EF90DF90CF9095
:100F6000BF90AF909F908F907F906F905F904F90C9
:100F700008955B01AC1ABD0A4C018C0E9D1EA09118
:100F80000603B0910703512C412CF12CE12C109752
:100F900031F580910403909105038815990509F0B6
:100FA0005CC04616570608F058C080910002909128
:100FB0000102009741F48DB79EB740910402509111
:100FC0000502841B950BE817F90708F055C0F0934C
:100FD0000503E0930403F90171836083B8CF8D9119
:100FE0009C91119712966C90129713967C90139780
:100FF000A815B90559F56C0142E0C40ED11CCA14FC
:10100000DB0420F1AC014A195B09DA01129615974D
:1010100080F06282738251834083D9016D937C9307
:10102000E114F10471F0D7011396FC93EE9312973B
:101030008ECF22968C0F9D1FF90191838083F3013F
:10104000EFCFF0930703E093060381CF48165906CC
:1010500008F42C017D01D3019ACFCB010E943906FF
:101060007C01009749F0AE01B8010E943F08C80119
:101070000E94D50687016BCF10E000E068CFFB012E
:10108000DC0102C001900D9241505040D8F7089504
:10109000FB01DC018D91019080190110D9F3990BAE
:1010A0000895FB01DC0101900D920020E1F7089505
:1010B00011E0CAE2D1E000E006C0802FFE010E94EC
:1010C00031062196011DCB32D10780E00807A9F730
:0410D000F894FFCFC2
:1010D400000008038000000000007C02E601130207
:1010E400C9024402220236020D0A00506C65617383
:1010F40065207363616E20796F757220446576692B
:101104006365004142313233343536373839410072
:1011140056616C69642054414700496E76616C697C
:0611240064205441470065
:00000001FF
