:100000000C945E000C9486000C9486000C94860080
:100010000C9486000C9486000C9486000C94860048
:100020000C9486000C9486000C9486000C94860038
:100030000C9486000C9486000C9486000C94860028
:100040000C94A5020C9486000C9473020C944D023F
:100050000C9486000C9486000C9486000C94860008
:100060000C9486000C9486000000000024002700F9
:100070002A0000000000250028002B0004040404CE
:100080000404040402020202020203030303030342
:10009000010204081020408001020408102001021F
:1000A00004081020000000080002010000030407FB
:1000B0000000000000000000EF02C40411241FBE75
:1000C000CFEFD8E0DEBFCDBF22E0A6E5B1E001C0B2
:1000D0001D92A830B207E1F711E0A0E0B1E0E4E240
:1000E000FEE002C005900D92A635B107D9F710E0E9
:1000F000CDE5D0E004C02197FE010E940405CC3577
:10010000D107C9F70E9463030C9405070C94000003
:10011000E1EBF0E02491EDE9F0E09491E9E8F0E022
:10012000E491EE23C9F0222339F0233001F1A8F441
:10013000213019F1223029F1F0E0EE0FFF1FEE58C7
:10014000FF4FA591B4912FB7F894EC91811126C07F
:1001500090959E239C932FBF08952730A9F02830B7
:10016000C9F0243049F7209180002F7D03C02091F1
:1001700080002F7720938000DFCF24B52F7724BD18
:10018000DBCF24B52F7DFBCF2091B0002F772093BC
:10019000B000D2CF2091B0002F7DF9CF9E2BDACFC7
:1001A000AF92BF92CF92DF92EF92FF920F931F9385
:1001B000CF93DF936C017B018B01040F151FEB01C3
:1001C0005E01AE18BF08C017D10759F06991D6017A
:1001D000ED91FC910190F081E02DC6010995892BEC
:1001E00079F7C501DF91CF911F910F91FF90EF90AB
:1001F000DF90CF90BF90AF900895FC01538D448D58
:10020000252F30E0842F90E0821B930B541710F0C1
:10021000CF96089501970895FC01918D828D9817CE
:1002200061F0A28DAE0FBF2FB11D5D968C91928DA6
:100230009F5F9F73928F90E008958FEF9FEF0895D7
:10024000FC01918D828D981731F0828DE80FF11DA0
:10025000858D90E008958FEF9FEF0895FC01918DBB
:10026000228D892F90E0805C9F4F821B91098F73B4
:100270009927089581E691E00E942E0121E0892BC3
:1002800009F420E0822F089580E090E0892B29F086
:100290000E943A0181110C9400000895FC01A48D84
:1002A000A80FB92FB11DA35ABF4F2C91848D90E098
:1002B00001968F739927848FA689B7892C93A0897B
:1002C000B1898C91837080648C93938D848D981305
:1002D00006C00288F389E02D80818F7D8083089598
:1002E000EF92FF920F931F93CF93DF93EC0181E086
:1002F000888F9B8D8C8D98131AC0E889F98980812D
:1003000085FF15C09FB7F894EE89FF896083E8895F
:10031000F98980818370806480839FBF81E090E051
:10032000DF91CF911F910F91FF90EF900895F62EDE
:100330000B8D10E00F5F1F4F0F731127E02E8C8D78
:100340008E110CC00FB607FCFACFE889F9898081BD
:1003500085FFF5CFCE010E944E01F1CFEB8DEC0F62
:10036000FD2FF11DE35AFF4FF0829FB7F8940B8FDA
:10037000EA89FB8980818062CFCFCF93DF93EC0144
:10038000888D8823B9F0AA89BB89E889F9898C917D
:1003900085FD03C0808186FD0DC00FB607FCF7CF39
:1003A0008C9185FFF2CF808185FFEDCFCE010E9439
:1003B0004E01E9CFDF91CF9108953FB7F894809136
:1003C0005B0190915C01A0915D01B0915E0126B549
:1003D000A89B05C02F3F19F00196A11DB11D3FBF7D
:1003E000BA2FA92F982F8827BC01CD01620F711D4C
:1003F000811D911D42E0660F771F881F991F4A9546
:10040000D1F70895CF93DF93FC0101900020E9F725
:100410003197AF01481B590BBC0181E691E00E9466
:10042000D000EC0142E050E068E171E081E691E04B
:100430000E94D0008C0F9D1FDF91CF910895CF9324
:10044000DF93EC018091FE019091FF01009759F03C
:1004500020910002309101022C173D0720F081E02D
:10046000DF91CF910895BE016F5F7F4F0E942F06ED
:10047000009789F09093FF018093FE01D0930102D1
:10048000C09300022091020230910302232B39F71E
:10049000FC011082E4CF80E0E3CF1F920F920FB6F1
:1004A0000F9211242F933F934F935F936F937F93FA
:1004B0008F939F93AF93BF93EF93FF9381E691E068
:1004C0000E944E01FF91EF91BF91AF919F918F914B
:1004D0007F916F915F914F913F912F910F900FBE40
:1004E0000F901F9018951F920F920FB60F92112424
:1004F0002F938F939F93EF93FF93E0917101F0916E
:1005000072018081E0917701F091780182FD1BC03A
:10051000908180917A018F5F8F7320917B01821788
:1005200041F0E0917A01F0E0EF59FE4F958F809312
:100530007A01FF91EF919F918F912F910F900FBEB4
:100540000F901F9018958081F4CF1F920F920FB6D5
:100550000F9211242F933F938F939F93AF93BF9349
:100560008091570190915801A0915901B0915A0181
:100570003091560123E0230F2D3758F50196A11D28
:10058000B11D209356018093570190935801A09379
:100590005901B0935A0180915B0190915C01A09147
:1005A0005D01B0915E010196A11DB11D80935B01BB
:1005B00090935C01A0935D01B0935E01BF91AF91F8
:1005C0009F918F913F912F910F900FBE0F901F9091
:1005D000189526E8230F0296A11DB11DD2CF1092C7
:1005E00064011092630188EE93E0A0E0B0E0809394
:1005F000650190936601A0936701B09368018AE05A
:1006000091E0909362018093610185EC90E090937A
:100610006E0180936D0184EC90E090937001809363
:100620006F0180EC90E0909372018093710181ECF6
:1006300090E0909374018093730182EC90E090932A
:1006400076018093750186EC90E090937801809319
:10065000770110927A0110927B0110927C01109226
:100660007D011092FF011092FE0110920102109282
:100670000002109203021092020290E080E00E94B9
:100680001F022091FE013091FF01811113C021153D
:10069000310519F0C9010E94A6051092FF011092C0
:1006A000FE011092030210920202109201021092B7
:1006B0000002089510920302109202026AE171E0B2
:1006C000C9010C94FE06CF93DF9300D0CDB7DEB7FF
:1006D000789484B5826084BD84B5816084BD85B51D
:1006E000826085BD85B5816085BD80916E00816029
:1006F00080936E00109281008091810082608093CF
:1007000081008091810081608093810080918000D0
:100710008160809380008091B10084608093B100FB
:100720008091B00081608093B00080917A008460F5
:1007300080937A0080917A00826080937A00809121
:100740007A00816080937A0080917A00806880933B
:100750007A001092C100E0917101F091720182E083
:100760008083E0916D01F0916E011082E0916F0144
:10077000F09170018FEC808310927901E091750106
:10078000F091760186E08083E0917301F09174012D
:10079000808180618083E0917301F0917401808198
:1007A00088608083E0917301F0917401808180689A
:1007B0008083E0917301F091740180818F7D80834B
:1007C000EDE9F0E02491E9E8F0E08491882399F0E4
:1007D00090E0880F991FFC01E859FF4FA591B49153
:1007E000FC01EE58FF4F859194918FB7F894EC91EE
:1007F000E22BEC938FBF8BE191E00E94020290E02C
:10080000C92E90E0D92E81E691E00E942E011816A3
:1008100019060CF05EC081E691E00E940C01009187
:100820005F01109160010F5F1F4F109360010093F3
:100830005F0189831A82E0900202F09003022FEF99
:10084000E21AF20AC7010E941F02882399F0209140
:10085000FE013091FF018091020290910302BE01DE
:100860006F5F7F4F820F931F0E94FE06F09203027C
:10087000E09202020C30110531F6409102025091D3
:1008800003026091FE017091FF0181E691E00E94F8
:10089000D0008091020290910302892B91F063E3D2
:1008A00071E08091FE019091FF010E94F506892B75
:1008B00041F480E491E00E94020281E00E948800FD
:1008C000A2CF80E00E9488008AE491E00E940202A8
:1008D0009ACF1092600110925F0190E080E00E9438
:1008E0001F022091FE013091FF01811143C02115AB
:1008F000310519F0C9010E94A6051092FF0110925E
:10090000FE01109203021092020210920102109254
:1009100000020E94DD012B013C0184EF882E992406
:100920009394A12CB12C0E94DD01641975098609EC
:100930009709683E734081059105A8F381E0881A04
:100940009108A108B10828EE420E23E0521E611C56
:10095000711C81149104A104B10429F7C114D104BC
:1009600009F451CF0E943A01882309F44CCF0E9428
:10097000000049CF10920302109202026AE171E076
:10098000C9010E94FE06C5CF8091FE019091FF0132
:10099000009711F00C94A60508952F923F924F9264
:1009A0005F926F927F928F929F92AF92BF92CF92FF
:1009B000DF92EF92FF920F931F93CF93DF93CDB708
:1009C000DEB7CA1BDB0B0FB6F894DEBF0FBECDBF80
:1009D00009942A88398848885F846E847D848C8451
:1009E0009B84AA84B984C884DF80EE80FD800C815A
:1009F0001B81AA81B981CE0FD11D0FB6F894DEBF3D
:100A00000FBECDBFED010895EE0FFF1F0590F491CD
:100A1000E02D09940F931F93CF93DF9382309105BC
:100A200010F482E090E0E0910602F091070230E0DD
:100A300020E0B0E0A0E0309799F42115310509F4E9
:100A40004AC0281B390B24303105D8F58A819B8197
:100A50006115710589F1FB0193838283FE0111C049
:100A6000408151810281138148175907E0F04817EE
:100A7000590799F4109761F012960C9312971396F8
:100A80001C933296CF01DF91CF911F910F91089562
:100A90000093060210930702F4CF2115310551F09F
:100AA0004217530738F0A901DB019A01BD01DF01AC
:100AB000F801C1CFEF01F9CF9093070280930602AE
:100AC000CDCFFE01E20FF31F8193919322503109A4
:100AD00039832883D7CF2091040230910502232B3C
:100AE00041F42091020130910301309305022093DB
:100AF000040220910001309101012115310541F4DA
:100B00002DB73EB74091040150910501241B350BD0
:100B1000E0910402F0910502E217F307A0F42E1B06
:100B20003F0B2817390778F0AC014E5F5F4F241751
:100B3000350748F04E0F5F1F5093050240930402A3
:100B4000819391939FCFF0E0E0E09CCFCF93DF9330
:100B50000097E9F0FC01329713821282A0910602FD
:100B6000B0910702ED0130E020E01097A1F4208160
:100B70003181820F931F20910402309105022817C2
:100B8000390709F061C0F0930502E0930402DF9198
:100B9000CF910895EA01CE17DF07E8F54A815B811E
:100BA0009E0141155105B1F7E901FB83EA834991A3
:100BB0005991C40FD51FEC17FD0761F48081918115
:100BC0000296840F951FE90199838883828193811E
:100BD0009B838A83F0E0E0E012968D919C911397BD
:100BE0000097B9F52D913C911197CD010296820F96
:100BF000931F20910402309105022817390739F616
:100C0000309751F51092070210920602B093050238
:100C1000A0930402BCCFD383C28340815181840F4F
:100C2000951FC817D90761F44E5F5F4F888199817E
:100C3000480F591F518340838A819B81938382830C
:100C40002115310509F0B0CFF0930702E0930602B9
:100C50009ECFFD01DC01C0CF13821282D7CFB0E05E
:100C6000A0E0E5E3F6E00C94CF048C01009751F48A
:100C7000CB010E940A058C01C801CDB7DEB7E0E1C7
:100C80000C94EB04FC01E60FF71F9C012250310984
:100C9000E217F30708F49DC0D901CD91DC911197BB
:100CA000C617D70798F0C530D10530F3CE010497A9
:100CB0008617970708F3C61BD70B2297C193D193CA
:100CC0006D937C93CF010E94A605D6CF5B01AC1A31
:100CD000BD0A4C018C0E9D1EA0910602B091070228
:100CE000512C412CF12CE12C109731F5809104020C
:100CF000909105028815990509F05CC046165706C3
:100D000008F058C08091000190910101009741F4D2
:100D10008DB79EB74091040150910501841B950B3E
:100D2000E817F90708F055C0F0930502E0930402B4
:100D3000F90171836083A0CF8D919C9111971296D8
:100D40006C90129713967C901397A815B90559F5D6
:100D50006C0142E0C40ED11CCA14DB0420F1AC01CA
:100D60004A195B09DA011296159780F06282738244
:100D700051834083D9016D937C93E114F10471F0A8
:100D8000D7011396FC93EE93129776CF22968C0F91
:100D90009D1FF90191838083F301EFCFF093070248
:100DA000E093060269CF4816590608F42C017D012C
:100DB000D3019ACFCB010E940A057C01009749F02C
:100DC000AE01B8010E94EC06C8010E94A605870189
:100DD00053CF10E000E050CFFB01DC0102C00190D6
:100DE0000D9241505040D8F70895FB01DC018D91E0
:100DF000019080190110D9F3990B0895FB01DC01D2
:100E000001900D920020E1F7089510E0CDE5D0E0CB
:100E100004C0FE010E9404052196CE35D107C9F712
:040E2000F894FFCF74
:100E2400000008028000000000007001D000FD00F6
:100E3400BD012E010C0120010D0A00506C65617387
:100E440065207363616E20796F75722044657669DD
:100E54006365004142313233343536373839410025
:100E640056616C69642054414700496E76616C692F
:060E740064205441470018
:00000001FF
